{
  "contractName": "WorldHouse",
  "abi": [
    {
      "inputs": [],
      "stateMutability": "nonpayable",
      "type": "constructor"
    },
    {
      "anonymous": false,
      "inputs": [
        {
          "indexed": false,
          "internalType": "address",
          "name": "buyer",
          "type": "address"
        }
      ],
      "name": "BuySuccess",
      "type": "event"
    },
    {
      "inputs": [],
      "name": "getHouse",
      "outputs": [
        {
          "internalType": "uint16",
          "name": "",
          "type": "uint16"
        },
        {
          "internalType": "uint16",
          "name": "",
          "type": "uint16"
        },
        {
          "internalType": "uint16",
          "name": "",
          "type": "uint16"
        },
        {
          "internalType": "uint8",
          "name": "",
          "type": "uint8"
        }
      ],
      "stateMutability": "view",
      "type": "function"
    },
    {
      "inputs": [
        {
          "internalType": "address[]",
          "name": "owners",
          "type": "address[]"
        }
      ],
      "name": "getHouses",
      "outputs": [
        {
          "internalType": "uint256[]",
          "name": "",
          "type": "uint256[]"
        }
      ],
      "stateMutability": "view",
      "type": "function"
    },
    {
      "inputs": [
        {
          "internalType": "uint16[]",
          "name": "rows",
          "type": "uint16[]"
        },
        {
          "internalType": "uint16[]",
          "name": "cols",
          "type": "uint16[]"
        }
      ],
      "name": "getEnvs",
      "outputs": [
        {
          "internalType": "uint16[]",
          "name": "",
          "type": "uint16[]"
        }
      ],
      "stateMutability": "view",
      "type": "function"
    },
    {
      "inputs": [
        {
          "internalType": "uint16",
          "name": "row",
          "type": "uint16"
        },
        {
          "internalType": "uint16",
          "name": "col",
          "type": "uint16"
        },
        {
          "internalType": "uint16",
          "name": "id",
          "type": "uint16"
        }
      ],
      "name": "buyHouse",
      "outputs": [],
      "stateMutability": "payable",
      "type": "function"
    },
    {
      "inputs": [
        {
          "internalType": "uint16",
          "name": "row",
          "type": "uint16"
        },
        {
          "internalType": "uint16",
          "name": "col",
          "type": "uint16"
        },
        {
          "internalType": "uint16",
          "name": "id",
          "type": "uint16"
        }
      ],
      "name": "buyEnv",
      "outputs": [],
      "stateMutability": "payable",
      "type": "function"
    },
    {
      "inputs": [
        {
          "internalType": "uint16[]",
          "name": "rows",
          "type": "uint16[]"
        },
        {
          "internalType": "uint16[]",
          "name": "cols",
          "type": "uint16[]"
        }
      ],
      "name": "getLandOwners",
      "outputs": [
        {
          "internalType": "address[]",
          "name": "",
          "type": "address[]"
        }
      ],
      "stateMutability": "view",
      "type": "function"
    },
    {
      "inputs": [
        {
          "internalType": "uint16",
          "name": "row",
          "type": "uint16"
        },
        {
          "internalType": "uint16",
          "name": "col",
          "type": "uint16"
        }
      ],
      "name": "move",
      "outputs": [],
      "stateMutability": "nonpayable",
      "type": "function"
    },
    {
      "inputs": [],
      "name": "getBasePrice",
      "outputs": [
        {
          "internalType": "uint256",
          "name": "",
          "type": "uint256"
        }
      ],
      "stateMutability": "view",
      "type": "function"
    },
    {
      "inputs": [],
      "name": "isOwner",
      "outputs": [
        {
          "internalType": "bool",
          "name": "",
          "type": "bool"
        }
      ],
      "stateMutability": "view",
      "type": "function"
    },
    {
      "inputs": [],
      "name": "getBalance",
      "outputs": [
        {
          "internalType": "uint256",
          "name": "",
          "type": "uint256"
        }
      ],
      "stateMutability": "view",
      "type": "function"
    },
    {
      "inputs": [],
      "name": "withdraw",
      "outputs": [],
      "stateMutability": "nonpayable",
      "type": "function"
    }
  ],
  "bytecode": "0x608060405234801561001057600080fd5b50336000806101000a81548173ffffffffffffffffffffffffffffffffffffffff021916908373ffffffffffffffffffffffffffffffffffffffff160217905550611be7806100606000396000f3fe60806040526004361061009c5760003560e01c80633ccfd60b116100645780633ccfd60b1461017c5780634f0803c614610193578063580e1d9f146101d057806375266e22146101ec5780638f32d59b14610229578063b49f4afd146102545761009c565b806304e2064f146100a157806312065fe0146100cf5780632440b09b146100fa578063311f8c9e146101375780633a66e3ad14610160575b600080fd5b3480156100ad57600080fd5b506100b661027f565b6040516100c69493929190611198565b60405180910390f35b3480156100db57600080fd5b506100e4610322565b6040516100f191906111f6565b60405180910390f35b34801561010657600080fd5b50610121600480360381019061011c91906113aa565b6103b9565b60405161012e91906114e0565b60405180910390f35b34801561014357600080fd5b5061015e60048036038101906101599190611502565b6104eb565b005b61017a60048036038101906101759190611542565b61078f565b005b34801561018857600080fd5b506101916109d3565b005b34801561019f57600080fd5b506101ba60048036038101906101b591906116b6565b610ad1565b6040516101c791906117bd565b60405180910390f35b6101ea60048036038101906101e59190611542565b610bec565b005b3480156101f857600080fd5b50610213600480360381019061020e91906113aa565b610ddf565b604051610220919061189d565b60405180910390f35b34801561023557600080fd5b5061023e610f47565b60405161024b91906118da565b60405180910390f35b34801561026057600080fd5b50610269610f9e565b60405161027691906111f6565b60405180910390f35b6000806000806000600160003373ffffffffffffffffffffffffffffffffffffffff1673ffffffffffffffffffffffffffffffffffffffff16815260200190815260200160002090508060000160009054906101000a900461ffff168160000160029054906101000a900461ffff168260000160049054906101000a900461ffff168360000160069054906101000a900460ff1694509450945094505090919293565b60008060009054906101000a900473ffffffffffffffffffffffffffffffffffffffff1673ffffffffffffffffffffffffffffffffffffffff163373ffffffffffffffffffffffffffffffffffffffff16146103b3576040517f08c379a00000000000000000000000000000000000000000000000000000000081526004016103aa90611952565b60405180910390fd5b47905090565b60606000835167ffffffffffffffff8111156103d8576103d761123b565b5b6040519080825280602002602001820160405280156104065781602001602082028036833780820191505090505b50905060005b84518160ff1610156104e0576000858260ff16815181106104305761042f611972565b5b602002602001015190506000858360ff168151811061045257610451611972565b5b60200260200101519050600360008361ffff1661ffff16815260200190815260200160002060008261ffff1661ffff16815260200190815260200160002060009054906101000a900461ffff16848460ff16815181106104b5576104b4611972565b5b602002602001019061ffff16908161ffff1681525050505080806104d8906119d0565b91505061040c565b508091505092915050565b8181600073ffffffffffffffffffffffffffffffffffffffff16600260008461ffff1661ffff16815260200190815260200160002060008361ffff1661ffff16815260200190815260200160002060009054906101000a900473ffffffffffffffffffffffffffffffffffffffff1673ffffffffffffffffffffffffffffffffffffffff16146105b0576040517f08c379a00000000000000000000000000000000000000000000000000000000081526004016105a790611a46565b60405180910390fd5b6000600360008461ffff1661ffff16815260200190815260200160002060008361ffff1661ffff16815260200190815260200160002060009054906101000a900461ffff1661ffff1614610639576040517f08c379a000000000000000000000000000000000000000000000000000000000815260040161063090611a46565b60405180910390fd5b6000600160003373ffffffffffffffffffffffffffffffffffffffff1673ffffffffffffffffffffffffffffffffffffffff168152602001908152602001600020905060018160000160069054906101000a900460ff1660ff16146106d3576040517f08c379a00000000000000000000000000000000000000000000000000000000081526004016106ca90611ab2565b60405180910390fd5b6000600260008360000160009054906101000a900461ffff1661ffff1661ffff16815260200190815260200160002060008360000160029054906101000a900461ffff1661ffff1661ffff16815260200190815260200160002060006101000a81548173ffffffffffffffffffffffffffffffffffffffff021916908373ffffffffffffffffffffffffffffffffffffffff16021790555061078885858360000160049054906101000a900461ffff16610fe4565b5050505050565b60018060003373ffffffffffffffffffffffffffffffffffffffff1673ffffffffffffffffffffffffffffffffffffffff16815260200190815260200160002060000160069054906101000a900460ff1660ff161415610824576040517f08c379a000000000000000000000000000000000000000000000000000000000815260040161081b90611b1e565b60405180910390fd5b8282600073ffffffffffffffffffffffffffffffffffffffff16600260008461ffff1661ffff16815260200190815260200160002060008361ffff1661ffff16815260200190815260200160002060009054906101000a900473ffffffffffffffffffffffffffffffffffffffff1673ffffffffffffffffffffffffffffffffffffffff16146108e9576040517f08c379a00000000000000000000000000000000000000000000000000000000081526004016108e090611a46565b60405180910390fd5b6000600360008461ffff1661ffff16815260200190815260200160002060008361ffff1661ffff16815260200190815260200160002060009054906101000a900461ffff1661ffff1614610972576040517f08c379a000000000000000000000000000000000000000000000000000000000815260040161096990611a46565b60405180910390fd5b61097d858585610fe4565b6004600081548092919061099090611b3e565b91905055507f31b7449f376c6be33190791b67b91ab915d8751fa8a39cc7e88a4c97baa3755f336040516109c49190611b96565b60405180910390a15050505050565b60008054906101000a900473ffffffffffffffffffffffffffffffffffffffff1673ffffffffffffffffffffffffffffffffffffffff163373ffffffffffffffffffffffffffffffffffffffff1614610a61576040517f08c379a0000000000000000000000000000000000000000000000000000000008152600401610a5890611952565b60405180910390fd5b60008054906101000a900473ffffffffffffffffffffffffffffffffffffffff1673ffffffffffffffffffffffffffffffffffffffff166108fc610aa3610322565b9081150290604051600060405180830381858888f19350505050158015610ace573d6000803e3d6000fd5b50565b606060008251905060008167ffffffffffffffff811115610af557610af461123b565b5b604051908082528060200260200182016040528015610b235781602001602082028036833780820191505090505b50905060005b828160ff161015610be157600060016000878460ff1681518110610b5057610b4f611972565b5b602002602001015173ffffffffffffffffffffffffffffffffffffffff1673ffffffffffffffffffffffffffffffffffffffff16815260200190815260200160002090508060000160049054906101000a900461ffff1661ffff16838360ff1681518110610bc157610bc0611972565b5b602002602001018181525050508080610bd9906119d0565b915050610b29565b508092505050919050565b8282600073ffffffffffffffffffffffffffffffffffffffff16600260008461ffff1661ffff16815260200190815260200160002060008361ffff1661ffff16815260200190815260200160002060009054906101000a900473ffffffffffffffffffffffffffffffffffffffff1673ffffffffffffffffffffffffffffffffffffffff1614610cb1576040517f08c379a0000000000000000000000000000000000000000000000000000000008152600401610ca890611a46565b60405180910390fd5b6000600360008461ffff1661ffff16815260200190815260200160002060008361ffff1661ffff16815260200190815260200160002060009054906101000a900461ffff1661ffff1614610d3a576040517f08c379a0000000000000000000000000000000000000000000000000000000008152600401610d3190611a46565b60405180910390fd5b82600360008761ffff1661ffff16815260200190815260200160002060008661ffff1661ffff16815260200190815260200160002060006101000a81548161ffff021916908361ffff16021790555060046000815480929190610d9c90611b3e565b91905055507f31b7449f376c6be33190791b67b91ab915d8751fa8a39cc7e88a4c97baa3755f33604051610dd09190611b96565b60405180910390a15050505050565b60606000835167ffffffffffffffff811115610dfe57610dfd61123b565b5b604051908082528060200260200182016040528015610e2c5781602001602082028036833780820191505090505b50905060005b84518160ff161015610f3c576000858260ff1681518110610e5657610e55611972565b5b602002602001015190506000858360ff1681518110610e7857610e77611972565b5b60200260200101519050600260008361ffff1661ffff16815260200190815260200160002060008261ffff1661ffff16815260200190815260200160002060009054906101000a900473ffffffffffffffffffffffffffffffffffffffff16848460ff1681518110610eed57610eec611972565b5b602002602001019073ffffffffffffffffffffffffffffffffffffffff16908173ffffffffffffffffffffffffffffffffffffffff168152505050508080610f34906119d0565b915050610e32565b508091505092915050565b60008060009054906101000a900473ffffffffffffffffffffffffffffffffffffffff1673ffffffffffffffffffffffffffffffffffffffff163373ffffffffffffffffffffffffffffffffffffffff1614905090565b60006103e860045411610fba5766038d7ea4c680009050610fe1565b620f424060045411610fd557662386f26fc100009050610fe1565b67016345785d8a000090505b90565b600060405180608001604052808561ffff1681526020018461ffff1681526020018361ffff168152602001600160ff16815250905080600160003373ffffffffffffffffffffffffffffffffffffffff1673ffffffffffffffffffffffffffffffffffffffff16815260200190815260200160002060008201518160000160006101000a81548161ffff021916908361ffff16021790555060208201518160000160026101000a81548161ffff021916908361ffff16021790555060408201518160000160046101000a81548161ffff021916908361ffff16021790555060608201518160000160066101000a81548160ff021916908360ff16021790555090505033600260008661ffff1661ffff16815260200190815260200160002060008561ffff1661ffff16815260200190815260200160002060006101000a81548173ffffffffffffffffffffffffffffffffffffffff021916908373ffffffffffffffffffffffffffffffffffffffff16021790555050505050565b600061ffff82169050919050565b6111768161115f565b82525050565b600060ff82169050919050565b6111928161117c565b82525050565b60006080820190506111ad600083018761116d565b6111ba602083018661116d565b6111c7604083018561116d565b6111d46060830184611189565b95945050505050565b6000819050919050565b6111f0816111dd565b82525050565b600060208201905061120b60008301846111e7565b92915050565b6000604051905090565b600080fd5b600080fd5b600080fd5b6000601f19601f8301169050919050565b7f4e487b7100000000000000000000000000000000000000000000000000000000600052604160045260246000fd5b6112738261122a565b810181811067ffffffffffffffff821117156112925761129161123b565b5b80604052505050565b60006112a5611211565b90506112b1828261126a565b919050565b600067ffffffffffffffff8211156112d1576112d061123b565b5b602082029050602081019050919050565b600080fd5b6112f08161115f565b81146112fb57600080fd5b50565b60008135905061130d816112e7565b92915050565b6000611326611321846112b6565b61129b565b90508083825260208201905060208402830185811115611349576113486112e2565b5b835b81811015611372578061135e88826112fe565b84526020840193505060208101905061134b565b5050509392505050565b600082601f83011261139157611390611225565b5b81356113a1848260208601611313565b91505092915050565b600080604083850312156113c1576113c061121b565b5b600083013567ffffffffffffffff8111156113df576113de611220565b5b6113eb8582860161137c565b925050602083013567ffffffffffffffff81111561140c5761140b611220565b5b6114188582860161137c565b9150509250929050565b600081519050919050565b600082825260208201905092915050565b6000819050602082019050919050565b6114578161115f565b82525050565b6000611469838361144e565b60208301905092915050565b6000602082019050919050565b600061148d82611422565b611497818561142d565b93506114a28361143e565b8060005b838110156114d35781516114ba888261145d565b97506114c583611475565b9250506001810190506114a6565b5085935050505092915050565b600060208201905081810360008301526114fa8184611482565b905092915050565b600080604083850312156115195761151861121b565b5b6000611527858286016112fe565b9250506020611538858286016112fe565b9150509250929050565b60008060006060848603121561155b5761155a61121b565b5b6000611569868287016112fe565b935050602061157a868287016112fe565b925050604061158b868287016112fe565b9150509250925092565b600067ffffffffffffffff8211156115b0576115af61123b565b5b602082029050602081019050919050565b600073ffffffffffffffffffffffffffffffffffffffff82169050919050565b60006115ec826115c1565b9050919050565b6115fc816115e1565b811461160757600080fd5b50565b600081359050611619816115f3565b92915050565b600061163261162d84611595565b61129b565b90508083825260208201905060208402830185811115611655576116546112e2565b5b835b8181101561167e578061166a888261160a565b845260208401935050602081019050611657565b5050509392505050565b600082601f83011261169d5761169c611225565b5b81356116ad84826020860161161f565b91505092915050565b6000602082840312156116cc576116cb61121b565b5b600082013567ffffffffffffffff8111156116ea576116e9611220565b5b6116f684828501611688565b91505092915050565b600081519050919050565b600082825260208201905092915050565b6000819050602082019050919050565b611734816111dd565b82525050565b6000611746838361172b565b60208301905092915050565b6000602082019050919050565b600061176a826116ff565b611774818561170a565b935061177f8361171b565b8060005b838110156117b0578151611797888261173a565b97506117a283611752565b925050600181019050611783565b5085935050505092915050565b600060208201905081810360008301526117d7818461175f565b905092915050565b600081519050919050565b600082825260208201905092915050565b6000819050602082019050919050565b611814816115e1565b82525050565b6000611826838361180b565b60208301905092915050565b6000602082019050919050565b600061184a826117df565b61185481856117ea565b935061185f836117fb565b8060005b83811015611890578151611877888261181a565b975061188283611832565b925050600181019050611863565b5085935050505092915050565b600060208201905081810360008301526118b7818461183f565b905092915050565b60008115159050919050565b6118d4816118bf565b82525050565b60006020820190506118ef60008301846118cb565b92915050565b600082825260208201905092915050565b7f4163636573732064656e69656400000000000000000000000000000000000000600082015250565b600061193c600d836118f5565b915061194782611906565b602082019050919050565b6000602082019050818103600083015261196b8161192f565b9050919050565b7f4e487b7100000000000000000000000000000000000000000000000000000000600052603260045260246000fd5b7f4e487b7100000000000000000000000000000000000000000000000000000000600052601160045260246000fd5b60006119db8261117c565b915060ff8214156119ef576119ee6119a1565b5b600182019050919050565b7f546865206c616e64206973206f776e656420627920736f6d656f6e6521000000600082015250565b6000611a30601d836118f5565b9150611a3b826119fa565b602082019050919050565b60006020820190508181036000830152611a5f81611a23565b9050919050565b7f596f7520646f206e6f742068617665206120686f757365210000000000000000600082015250565b6000611a9c6018836118f5565b9150611aa782611a66565b602082019050919050565b60006020820190508181036000830152611acb81611a8f565b9050919050565b7f416c726561647920686173206f6e650000000000000000000000000000000000600082015250565b6000611b08600f836118f5565b9150611b1382611ad2565b602082019050919050565b60006020820190508181036000830152611b3781611afb565b9050919050565b6000611b49826111dd565b91507fffffffffffffffffffffffffffffffffffffffffffffffffffffffffffffffff821415611b7c57611b7b6119a1565b5b600182019050919050565b611b90816115e1565b82525050565b6000602082019050611bab6000830184611b87565b9291505056fea2646970667358221220d175d8d90f3ef90a81e80ab7b4b13fa4219f7f783984df3484c5fca2c90aac5064736f6c63430008090033",
  "immutableReferences": {},
  "source": "// SPDX-License-Identifier: Unlicense\npragma solidity ^0.8.9;\n\ncontract WorldHouse{\n    address private owner;\n    event BuySuccess(address buyer);\n    struct HouseData{\n        uint16 row;\n        uint16 col;\n        uint16 id;\n        uint8 used;\n    }\n    mapping(address => HouseData) houseRecord;\n    mapping(uint16 => mapping(uint16 => address)) landRecord;\n    mapping(uint16 => mapping(uint16 => uint16)) envRecord;\n    uint count;\n\n    constructor() {\n        owner = msg.sender;\n    }\n\n    function getHouse() public view returns(uint16, uint16, uint16, uint8){\n        HouseData storage data = houseRecord[msg.sender];\n        return (data.row, data.col, data.id, data.used);\n    }\n\n    function getHouses(address[] memory owners) public view returns(uint[] memory){\n        uint len = owners.length;\n        uint[] memory datas = new uint[](len);\n        for(uint8 i = 0; i < len; i++){\n            HouseData storage house = houseRecord[owners[i]];\n            datas[i] = house.id;\n        }\n        return datas;\n    }\n\n    function getEnvs(uint16[] memory rows, uint16[] memory cols) \n        public view returns(uint16[] memory){\n        uint16[] memory envs = new uint16[](rows.length);\n        for(uint8 i = 0; i < rows.length; i++){\n            uint16 row = rows[i];\n            uint16 col = cols[i];\n            envs[i] = envRecord[row][col];\n        }\n        return envs;\n    }\n\n    function buyHouse(uint16 row, uint16 col, uint16 id) public onlyOne \n        targetNotOwned(row, col) payable{\n        _addRecord(row, col, id);\n        count++;\n        emit BuySuccess(msg.sender);\n    }\n\n    function buyEnv(uint16 row, uint16 col, uint16 id) public \n        targetNotOwned(row, col) payable{\n        envRecord[row][col] = id;\n        count++;\n        emit BuySuccess(msg.sender);\n    }\n\n    function getLandOwners(uint16[] memory rows, uint16[] memory cols) \n        public view returns(address[] memory){\n        address[] memory landOwners = new address[](rows.length);\n        for(uint8 i = 0; i < rows.length; i++){\n            uint16 row = rows[i];\n            uint16 col = cols[i]; \n            landOwners[i] = landRecord[row][col];\n        }\n        return landOwners;\n    }\n\n\n    function move(uint16 row, uint16 col) public targetNotOwned(row, col)  {\n        HouseData storage data = houseRecord[msg.sender];\n        require(data.used == 1, \"You do not have a house!\");\n\n        landRecord[data.row][data.col] = address(0);\n        _addRecord(row, col,data. id);\n    }\n\n    function getBasePrice() public view returns(uint){\n        if(count <= 1000) return 1e15;\n        else if(count <= 1000000) return 1e16;\n        else return 1e17;\n    }\n\n    function isOwner() public view returns(bool){\n        return msg.sender == owner;\n    }\n\n\n    function getBalance() public view ownerAccess returns(uint){\n        return address(this).balance;\n    }\n\n    function withdraw() public ownerAccess {\n        payable(owner).transfer(getBalance());\n    }\n\n    // midifier\n    modifier ownerAccess(){\n        require(msg.sender == owner, \"Access denied\");\n        _;\n    }\n\n    modifier onlyOne(){\n        require(houseRecord[msg.sender].used != 1, \"Already has one\");\n        _;\n    }\n\n    modifier targetNotOwned(uint16 row, uint16 col){\n        require(landRecord[row][col] == address(0), \"The land is owned by someone!\");\n        require(envRecord[row][col] == 0, \"The land is owned by someone!\");\n        _;\n    }\n\n    // private\n    function _addRecord(uint16 row, uint16 col, uint16 id) private{\n        HouseData memory data = HouseData(row, col, id, 1);\n        houseRecord[msg.sender] = data;\n        landRecord[row][col] = msg.sender;\n    }\n}",
  "sourcePath": "/Users/stephen/github/worldhouse/contracts/WorldHouse.sol",
  "compiler": {
    "name": "solc",
    "version": "0.8.9+commit.e5eed63a.Emscripten.clang"
  },
  "schemaVersion": "3.4.14",
  "updatedAt": "2023-06-05T04:02:41.477Z",
  "devdoc": {
    "kind": "dev",
    "methods": {},
    "version": 1
  },
  "userdoc": {
    "kind": "user",
    "methods": {},
    "version": 1
  }
}